{
  "_format": "hh-sol-artifact-1",
  "contractName": "SmartAccount",
  "sourceName": "contracts/SmartAccount.sol",
  "abi": [
    {
      "inputs": [
        {
          "internalType": "address",
          "name": "entryPoint",
          "type": "address"
        }
      ],
      "stateMutability": "nonpayable",
      "type": "constructor"
    },
    {
      "inputs": [],
      "name": "ECDSAInvalidSignature",
      "type": "error"
    },
    {
      "inputs": [
        {
          "internalType": "uint256",
          "name": "length",
          "type": "uint256"
        }
      ],
      "name": "ECDSAInvalidSignatureLength",
      "type": "error"
    },
    {
      "inputs": [
        {
          "internalType": "bytes32",
          "name": "s",
          "type": "bytes32"
        }
      ],
      "name": "ECDSAInvalidSignatureS",
      "type": "error"
    },
    {
      "inputs": [
        {
          "internalType": "address",
          "name": "owner",
          "type": "address"
        }
      ],
      "name": "OwnableInvalidOwner",
      "type": "error"
    },
    {
      "inputs": [
        {
          "internalType": "address",
          "name": "account",
          "type": "address"
        }
      ],
      "name": "OwnableUnauthorizedAccount",
      "type": "error"
    },
    {
      "inputs": [
        {
          "internalType": "bytes",
          "name": "",
          "type": "bytes"
        }
      ],
      "name": "SmartAccount__CallFailed",
      "type": "error"
    },
    {
      "inputs": [],
      "name": "SmartAccount__NotFromEntryPoint",
      "type": "error"
    },
    {
      "inputs": [],
      "name": "SmartAccount__NotFromEntryPointOrOwner",
      "type": "error"
    },
    {
      "anonymous": false,
      "inputs": [
        {
          "indexed": true,
          "internalType": "address",
          "name": "previousOwner",
          "type": "address"
        },
        {
          "indexed": true,
          "internalType": "address",
          "name": "newOwner",
          "type": "address"
        }
      ],
      "name": "OwnershipTransferred",
      "type": "event"
    },
    {
      "inputs": [
        {
          "internalType": "address",
          "name": "dest",
          "type": "address"
        },
        {
          "internalType": "uint256",
          "name": "value",
          "type": "uint256"
        },
        {
          "internalType": "bytes",
          "name": "functionData",
          "type": "bytes"
        }
      ],
      "name": "execute",
      "outputs": [],
      "stateMutability": "nonpayable",
      "type": "function"
    },
    {
      "inputs": [],
      "name": "getEntryPoint",
      "outputs": [
        {
          "internalType": "address",
          "name": "",
          "type": "address"
        }
      ],
      "stateMutability": "view",
      "type": "function"
    },
    {
      "inputs": [],
      "name": "owner",
      "outputs": [
        {
          "internalType": "address",
          "name": "",
          "type": "address"
        }
      ],
      "stateMutability": "view",
      "type": "function"
    },
    {
      "inputs": [],
      "name": "renounceOwnership",
      "outputs": [],
      "stateMutability": "nonpayable",
      "type": "function"
    },
    {
      "inputs": [
        {
          "internalType": "address",
          "name": "newOwner",
          "type": "address"
        }
      ],
      "name": "transferOwnership",
      "outputs": [],
      "stateMutability": "nonpayable",
      "type": "function"
    },
    {
      "inputs": [
        {
          "components": [
            {
              "internalType": "address",
              "name": "sender",
              "type": "address"
            },
            {
              "internalType": "uint256",
              "name": "nonce",
              "type": "uint256"
            },
            {
              "internalType": "bytes",
              "name": "initCode",
              "type": "bytes"
            },
            {
              "internalType": "bytes",
              "name": "callData",
              "type": "bytes"
            },
            {
              "internalType": "bytes32",
              "name": "accountGasLimits",
              "type": "bytes32"
            },
            {
              "internalType": "uint256",
              "name": "preVerificationGas",
              "type": "uint256"
            },
            {
              "internalType": "bytes32",
              "name": "gasFees",
              "type": "bytes32"
            },
            {
              "internalType": "bytes",
              "name": "paymasterAndData",
              "type": "bytes"
            },
            {
              "internalType": "bytes",
              "name": "signature",
              "type": "bytes"
            }
          ],
          "internalType": "struct PackedUserOperation",
          "name": "userOp",
          "type": "tuple"
        },
        {
          "internalType": "bytes32",
          "name": "userOpHash",
          "type": "bytes32"
        },
        {
          "internalType": "uint256",
          "name": "missingAccountFunds",
          "type": "uint256"
        }
      ],
      "name": "validateUserOp",
      "outputs": [
        {
          "internalType": "uint256",
          "name": "validationData",
          "type": "uint256"
        }
      ],
      "stateMutability": "nonpayable",
      "type": "function"
    },
    {
      "stateMutability": "payable",
      "type": "receive"
    }
  ],
  "bytecode": "0x60a060405234801561000f575f5ffd5b5060405161096038038061096083398101604081905261002e916100bd565b338061005357604051631e4fbdf760e01b81525f600482015260240160405180910390fd5b61005c8161006e565b506001600160a01b03166080526100ea565b5f80546001600160a01b038381166001600160a01b0319831681178455604051919092169283917f8be0079c531659141344cd1fd0a4f28419497f9722a3daafe3b4186f6b6457e09190a35050565b5f602082840312156100cd575f5ffd5b81516001600160a01b03811681146100e3575f5ffd5b9392505050565b60805161085161010f5f395f818160a20152818161015601526101ce01526108515ff3fe608060405260043610610057575f3560e01c806319822f7c1461006257806344ab613f14610094578063715018a6146100da5780638da5cb5b146100f0578063b61d27f61461010c578063f2fde38b1461012b575f5ffd5b3661005e57005b5f5ffd5b34801561006d575f5ffd5b5061008161007c366004610673565b61014a565b6040519081526020015b60405180910390f35b34801561009f575f5ffd5b507f00000000000000000000000000000000000000000000000000000000000000005b6040516001600160a01b03909116815260200161008b565b3480156100e5575f5ffd5b506100ee6101b0565b005b3480156100fb575f5ffd5b505f546001600160a01b03166100c2565b348015610117575f5ffd5b506100ee6101263660046106dd565b6101c3565b348015610136575f5ffd5b506100ee610145366004610760565b6102b5565b5f336001600160a01b037f000000000000000000000000000000000000000000000000000000000000000016146101945760405163068bc89f60e11b815260040160405180910390fd5b61019e84846102f2565b90506101a9826103ae565b9392505050565b6101b8610403565b6101c15f61042f565b565b336001600160a01b037f0000000000000000000000000000000000000000000000000000000000000000161480159061020657505f546001600160a01b03163314155b15610224576040516369eb1fd360e11b815260040160405180910390fd5b5f5f856001600160a01b0316858585604051610241929190610779565b5f6040518083038185875af1925050503d805f811461027b576040519150601f19603f3d011682016040523d82523d5f602084013e610280565b606091505b5091509150816102ad5780604051622ec03160e51b81526004016102a49190610788565b60405180910390fd5b505050505050565b6102bd610403565b6001600160a01b0381166102e657604051631e4fbdf760e01b81525f60048201526024016102a4565b6102ef8161042f565b50565b7f19457468657265756d205369676e6564204d6573736167653a0a3332000000005f908152601c829052603c81205f61036c826103336101008801886107bd565b8080601f0160208091040260200160405190810160405280939291908181526020018383808284375f9201919091525061047e92505050565b905061037f5f546001600160a01b031690565b6001600160a01b0316816001600160a01b0316146103a2576001925050506103a8565b5f925050505b92915050565b80156102ef576040515f9033905f1990849084818181858888f193505050503d805f81146103f7576040519150601f19603f3d011682016040523d82523d5f602084013e6103fc565b606091505b5050505050565b5f546001600160a01b031633146101c15760405163118cdaa760e01b81523360048201526024016102a4565b5f80546001600160a01b038381166001600160a01b0319831681178455604051919092169283917f8be0079c531659141344cd1fd0a4f28419497f9722a3daafe3b4186f6b6457e09190a35050565b5f5f5f5f61048c86866104a6565b92509250925061049c82826104ef565b5090949350505050565b5f5f5f83516041036104dd576020840151604085015160608601515f1a6104cf888285856105ab565b9550955095505050506104e8565b505081515f91506002905b9250925092565b5f82600381111561050257610502610807565b0361050b575050565b600182600381111561051f5761051f610807565b0361053d5760405163f645eedf60e01b815260040160405180910390fd5b600282600381111561055157610551610807565b036105725760405163fce698f760e01b8152600481018290526024016102a4565b600382600381111561058657610586610807565b036105a7576040516335e2f38360e21b8152600481018290526024016102a4565b5050565b5f80807f7fffffffffffffffffffffffffffffff5d576e7357a4501ddfe92f46681b20a08411156105e457505f91506003905082610669565b604080515f808252602082018084528a905260ff891692820192909252606081018790526080810186905260019060a0016020604051602081039080840390855afa158015610635573d5f5f3e3d5ffd5b5050604051601f1901519150506001600160a01b03811661066057505f925060019150829050610669565b92505f91508190505b9450945094915050565b5f5f5f60608486031215610685575f5ffd5b833567ffffffffffffffff81111561069b575f5ffd5b840161012081870312156106ad575f5ffd5b95602085013595506040909401359392505050565b80356001600160a01b03811681146106d8575f5ffd5b919050565b5f5f5f5f606085870312156106f0575f5ffd5b6106f9856106c2565b935060208501359250604085013567ffffffffffffffff81111561071b575f5ffd5b8501601f8101871361072b575f5ffd5b803567ffffffffffffffff811115610741575f5ffd5b876020828401011115610752575f5ffd5b949793965060200194505050565b5f60208284031215610770575f5ffd5b6101a9826106c2565b818382375f9101908152919050565b602081525f82518060208401528060208501604085015e5f604082850101526040601f19601f83011684010191505092915050565b5f5f8335601e198436030181126107d2575f5ffd5b83018035915067ffffffffffffffff8211156107ec575f5ffd5b602001915036819003821315610800575f5ffd5b9250929050565b634e487b7160e01b5f52602160045260245ffdfea264697066735822122032fe943b37a3117dd53e8450956b477c198e9f8c0d09f1490834c0534cca449664736f6c634300081c0033",
  "linkReferences": {},
  "deployedLinkReferences": {}
}